{
  "contractName": "Collat",
  "abi": [
    {
      "constant": true,
      "inputs": [],
      "name": "benefStatus",
      "outputs": [
        {
          "name": "",
          "type": "bool"
        }
      ],
      "payable": false,
      "stateMutability": "view",
      "type": "function"
    },
    {
      "constant": true,
      "inputs": [],
      "name": "posterStatus",
      "outputs": [
        {
          "name": "",
          "type": "bool"
        }
      ],
      "payable": false,
      "stateMutability": "view",
      "type": "function"
    },
    {
      "constant": true,
      "inputs": [],
      "name": "collatVal",
      "outputs": [
        {
          "name": "",
          "type": "uint256"
        }
      ],
      "payable": false,
      "stateMutability": "view",
      "type": "function"
    },
    {
      "constant": true,
      "inputs": [],
      "name": "poster",
      "outputs": [
        {
          "name": "",
          "type": "address"
        }
      ],
      "payable": false,
      "stateMutability": "view",
      "type": "function"
    },
    {
      "constant": true,
      "inputs": [],
      "name": "benef",
      "outputs": [
        {
          "name": "",
          "type": "address"
        }
      ],
      "payable": false,
      "stateMutability": "view",
      "type": "function"
    },
    {
      "inputs": [
        {
          "name": "_cpty2",
          "type": "address"
        }
      ],
      "payable": true,
      "stateMutability": "payable",
      "type": "constructor"
    },
    {
      "anonymous": false,
      "inputs": [
        {
          "indexed": true,
          "name": "poster",
          "type": "address"
        },
        {
          "indexed": false,
          "name": "posterStatus",
          "type": "bool"
        }
      ],
      "name": "PosterValidated",
      "type": "event"
    },
    {
      "anonymous": false,
      "inputs": [
        {
          "indexed": true,
          "name": "",
          "type": "address"
        },
        {
          "indexed": false,
          "name": "benefStatus",
          "type": "bool"
        }
      ],
      "name": "BenefValidated",
      "type": "event"
    },
    {
      "anonymous": false,
      "inputs": [
        {
          "indexed": true,
          "name": "poster",
          "type": "address"
        },
        {
          "indexed": false,
          "name": "amount",
          "type": "uint256"
        }
      ],
      "name": "PosterWithdrew",
      "type": "event"
    },
    {
      "anonymous": false,
      "inputs": [
        {
          "indexed": true,
          "name": "benef",
          "type": "address"
        },
        {
          "indexed": false,
          "name": "amount",
          "type": "uint256"
        }
      ],
      "name": "BenefClaimed",
      "type": "event"
    },
    {
      "constant": false,
      "inputs": [],
      "name": "benefValidate",
      "outputs": [],
      "payable": false,
      "stateMutability": "nonpayable",
      "type": "function"
    },
    {
      "constant": false,
      "inputs": [],
      "name": "posterValidate",
      "outputs": [],
      "payable": false,
      "stateMutability": "nonpayable",
      "type": "function"
    },
    {
      "constant": false,
      "inputs": [],
      "name": "posterWithdraw",
      "outputs": [],
      "payable": false,
      "stateMutability": "nonpayable",
      "type": "function"
    },
    {
      "constant": false,
      "inputs": [],
      "name": "benefClaimFunds",
      "outputs": [],
      "payable": false,
      "stateMutability": "nonpayable",
      "type": "function"
    }
  ],
  "bytecode": "0x60806040526000600160146101000a81548160ff0219169083151502179055506000600160156101000a81548160ff02191690831515021790555060405160208061084e8339810180604052602081101561005957600080fd5b8101908080519060200190929190505050336000806101000a81548173ffffffffffffffffffffffffffffffffffffffff021916908373ffffffffffffffffffffffffffffffffffffffff16021790555080600160006101000a81548173ffffffffffffffffffffffffffffffffffffffff021916908373ffffffffffffffffffffffffffffffffffffffff160217905550346002819055505061074c806101026000396000f3fe608060405260043610610099576000357c0100000000000000000000000000000000000000000000000000000000900463ffffffff1680632033a29e1461009e5780633515bcee146100cd5780634442f10d146100e45780635512c2b2146101135780635ceb64021461012a578063809597211461015557806389ab2d53146101ac578063e705704c14610203578063ec601ad51461021a575b600080fd5b3480156100aa57600080fd5b506100b3610231565b604051808215151515815260200191505060405180910390f35b3480156100d957600080fd5b506100e2610244565b005b3480156100f057600080fd5b506100f9610398565b604051808215151515815260200191505060405180910390f35b34801561011f57600080fd5b506101286103ab565b005b34801561013657600080fd5b5061013f6104e6565b6040518082815260200191505060405180910390f35b34801561016157600080fd5b5061016a6104ec565b604051808273ffffffffffffffffffffffffffffffffffffffff1673ffffffffffffffffffffffffffffffffffffffff16815260200191505060405180910390f35b3480156101b857600080fd5b506101c1610511565b604051808273ffffffffffffffffffffffffffffffffffffffff1673ffffffffffffffffffffffffffffffffffffffff16815260200191505060405180910390f35b34801561020f57600080fd5b50610218610537565b005b34801561022657600080fd5b5061022f61062b565b005b600160159054906101000a900460ff1681565b600160009054906101000a900473ffffffffffffffffffffffffffffffffffffffff1673ffffffffffffffffffffffffffffffffffffffff163373ffffffffffffffffffffffffffffffffffffffff161415156102a057600080fd5b600160159054906101000a900460ff1680156102c85750600160149054906101000a900460ff165b15156102d357600080fd5b600160009054906101000a900473ffffffffffffffffffffffffffffffffffffffff1673ffffffffffffffffffffffffffffffffffffffff166108fc6002549081150290604051600060405180830381858888f1935050505015801561033d573d6000803e3d6000fd5b503373ffffffffffffffffffffffffffffffffffffffff167fc13fa05bac23673d6f1f3b5c97f526f6bffeebb53e8a678ef659aedd4fe259686002546040518082815260200191505060405180910390a26000600281905550565b600160149054906101000a900460ff1681565b6000809054906101000a900473ffffffffffffffffffffffffffffffffffffffff1673ffffffffffffffffffffffffffffffffffffffff163373ffffffffffffffffffffffffffffffffffffffff1614151561040657600080fd5b600160159054906101000a900460ff1615151561042257600080fd5b6000809054906101000a900473ffffffffffffffffffffffffffffffffffffffff1673ffffffffffffffffffffffffffffffffffffffff166108fc6002549081150290604051600060405180830381858888f1935050505015801561048b573d6000803e3d6000fd5b503373ffffffffffffffffffffffffffffffffffffffff167ffe1c92358b1eb0d1d17d25ba5890fb03376ee99e895bd12bd1527443adfff8c56002546040518082815260200191505060405180910390a26000600281905550565b60025481565b6000809054906101000a900473ffffffffffffffffffffffffffffffffffffffff1681565b600160009054906101000a900473ffffffffffffffffffffffffffffffffffffffff1681565b6000809054906101000a900473ffffffffffffffffffffffffffffffffffffffff1673ffffffffffffffffffffffffffffffffffffffff163373ffffffffffffffffffffffffffffffffffffffff1614151561059257600080fd5b600160149054906101000a900460ff161515156105ae57600080fd5b60018060146101000a81548160ff0219169083151502179055503373ffffffffffffffffffffffffffffffffffffffff167f6c7466d59e633451ff7ba0b137a88af6bc71caa0f4c4e172ca7bd4193ba70836600160149054906101000a900460ff16604051808215151515815260200191505060405180910390a2565b600160009054906101000a900473ffffffffffffffffffffffffffffffffffffffff1673ffffffffffffffffffffffffffffffffffffffff163373ffffffffffffffffffffffffffffffffffffffff1614151561068757600080fd5b600160159054906101000a900460ff161515156106a357600080fd5b60018060156101000a81548160ff0219169083151502179055503373ffffffffffffffffffffffffffffffffffffffff167f7fee8ab2b7686cc6c824ee0b49e84953d8d39e83756a28887ce49d9b9b4c40e5600160159054906101000a900460ff16604051808215151515815260200191505060405180910390a256fea165627a7a72305820f9fd7e1180596c00d3d58dedc300f5189cf3e21a76e575907c9696083ae149140029",
  "source": "pragma solidity ^0.5.0;\r\n\r\nimport './SafeMath.sol';\r\n\r\ncontract Collat {\r\n    \r\n    using SafeMath for uint256;\r\n    \r\n    address payable public poster;\r\n    address payable public benef;\r\n\r\n    bool public posterStatus = false;\r\n    bool public benefStatus = false;\r\n    \r\n    uint256 public collatVal;\r\n    \r\n    event PosterValidated(address indexed poster, bool posterStatus);\r\n    event BenefValidated(address indexed, bool benefStatus);\r\n    event PosterWithdrew(address indexed poster, uint amount);\r\n    event BenefClaimed(address indexed benef, uint amount);\r\n\r\n    constructor(address payable _cpty2) public payable {\r\n        poster = msg.sender;\r\n        benef = _cpty2;\r\n        collatVal = msg.value;\r\n    }\r\n    \r\n    function benefValidate() public {\r\n        require(msg.sender == benef);\r\n        require(!benefStatus);\r\n        benefStatus = true;\r\n        emit BenefValidated(msg.sender, benefStatus);\r\n    }\r\n    \r\n    function posterValidate() public {\r\n        require(msg.sender == poster);\r\n        require(!posterStatus);\r\n        posterStatus = true;\r\n        emit PosterValidated(msg.sender, posterStatus);\r\n    }\r\n    \r\n    function posterWithdraw() public {\r\n        require(msg.sender == poster);\r\n        require(!benefStatus);\r\n        poster.transfer(collatVal);\r\n        emit PosterWithdrew(msg.sender, collatVal);\r\n        collatVal = 0;\r\n    }\r\n    \r\n    function benefClaimFunds() public {\r\n        require(msg.sender == benef);\r\n        require(benefStatus && posterStatus);\r\n        benef.transfer(collatVal);\r\n        emit BenefClaimed(msg.sender, collatVal);\r\n        collatVal = 0;\r\n    }\r\n    \r\n}\r\n\r\n",
  "sourcePath": "C:/Users/Ben/Documents/GitHub/SureVX/contracts/Collat.sol",
  "compiler": {
    "name": "solc",
    "version": "0.5.0+commit.1d4f565a.Emscripten.clang"
  },
  "schemaVersion": "3.0.1",
  "updatedAt": "2019-03-12T19:50:08.039Z",
  "devdoc": {
    "methods": {}
  },
  "userdoc": {
    "methods": {}
  }
}