{
  "contractName": "CollatFactory",
  "abi": [
    {
      "constant": false,
      "inputs": [
        {
          "name": "_cpty2",
          "type": "address"
        },
        {
          "name": "_amount",
          "type": "uint256"
        }
      ],
      "name": "createCollat",
      "outputs": [
        {
          "name": "",
          "type": "address"
        }
      ],
      "payable": false,
      "stateMutability": "nonpayable",
      "type": "function"
    },
    {
      "constant": true,
      "inputs": [],
      "name": "getCollatCount",
      "outputs": [
        {
          "name": "collatCount",
          "type": "uint256"
        }
      ],
      "payable": false,
      "stateMutability": "view",
      "type": "function"
    },
    {
      "constant": true,
      "inputs": [],
      "name": "getCollatAddresses",
      "outputs": [
        {
          "name": "",
          "type": "address[]"
        }
      ],
      "payable": false,
      "stateMutability": "view",
      "type": "function"
    }
  ],
  "bytecode": "0x608060405234801561001057600080fd5b5061078a806100206000396000f3fe608060405260043610610057576000357c0100000000000000000000000000000000000000000000000000000000900463ffffffff16806311ea77c21461005c578063a04ffd3d146100c8578063dd8e236e14610163575b600080fd5b34801561006857600080fd5b5061007161018e565b6040518080602001828103825283818151815260200191508051906020019060200280838360005b838110156100b4578082015181840152602081019050610099565b505050509050019250505060405180910390f35b3480156100d457600080fd5b50610121600480360360408110156100eb57600080fd5b81019080803573ffffffffffffffffffffffffffffffffffffffff1690602001909291908035906020019092919050505061021c565b604051808273ffffffffffffffffffffffffffffffffffffffff1673ffffffffffffffffffffffffffffffffffffffff16815260200191505060405180910390f35b34801561016f57600080fd5b506101786103ad565b6040518082815260200191505060405180910390f35b6060600080548060200260200160405190810160405280929190818152602001828054801561021257602002820191906000526020600020905b8160009054906101000a900473ffffffffffffffffffffffffffffffffffffffff1673ffffffffffffffffffffffffffffffffffffffff16815260200190600101908083116101c8575b5050505050905090565b600080339050600081858561022f6103b9565b808473ffffffffffffffffffffffffffffffffffffffff1673ffffffffffffffffffffffffffffffffffffffff1681526020018373ffffffffffffffffffffffffffffffffffffffff1673ffffffffffffffffffffffffffffffffffffffff1681526020018281526020019350505050604051809103906000f0801580156102bb573d6000803e3d6000fd5b50905060008190806001815401808255809150509060018203906000526020600020016000909192909190916101000a81548173ffffffffffffffffffffffffffffffffffffffff021916908373ffffffffffffffffffffffffffffffffffffffff1602179055505080600160003373ffffffffffffffffffffffffffffffffffffffff1673ffffffffffffffffffffffffffffffffffffffff16815260200190815260200160002060006101000a81548173ffffffffffffffffffffffffffffffffffffffff021916908373ffffffffffffffffffffffffffffffffffffffff160217905550809250505092915050565b60008080549050905090565b604051610395806103ca8339019056fe608060405234801561001057600080fd5b506040516060806103958339810180604052606081101561003057600080fd5b81019080805190602001909291908051906020019092919080519060200190929190505050826000806101000a81548173ffffffffffffffffffffffffffffffffffffffff021916908373ffffffffffffffffffffffffffffffffffffffff16021790555081600160006101000a81548173ffffffffffffffffffffffffffffffffffffffff021916908373ffffffffffffffffffffffffffffffffffffffff160217905550806002819055505050506102a6806100ef6000396000f3fe608060405260043610610062576000357c0100000000000000000000000000000000000000000000000000000000900463ffffffff16806324a81ab414610067578063616f1c36146100f8578063aa8c217c1461014f578063da5ff70f1461017a575b600080fd5b34801561007357600080fd5b5061007c6101d1565b604051808473ffffffffffffffffffffffffffffffffffffffff1673ffffffffffffffffffffffffffffffffffffffff1681526020018373ffffffffffffffffffffffffffffffffffffffff1673ffffffffffffffffffffffffffffffffffffffff168152602001828152602001935050505060405180910390f35b34801561010457600080fd5b5061010d610229565b604051808273ffffffffffffffffffffffffffffffffffffffff1673ffffffffffffffffffffffffffffffffffffffff16815260200191505060405180910390f35b34801561015b57600080fd5b5061016461024e565b6040518082815260200191505060405180910390f35b34801561018657600080fd5b5061018f610254565b604051808273ffffffffffffffffffffffffffffffffffffffff1673ffffffffffffffffffffffffffffffffffffffff16815260200191505060405180910390f35b60008060008060009054906101000a900473ffffffffffffffffffffffffffffffffffffffff16600160009054906101000a900473ffffffffffffffffffffffffffffffffffffffff16600254925092509250909192565b6000809054906101000a900473ffffffffffffffffffffffffffffffffffffffff1681565b60025481565b600160009054906101000a900473ffffffffffffffffffffffffffffffffffffffff168156fea165627a7a72305820efd55c5a7d318f4fa16bdd91b81fc3734ab240fe522dad24fb9c3ff91fd35df70029a165627a7a72305820a87c36491a5d875f2bd0df06076c5520b47281794efa22d1b496ca5843d645d50029",
  "source": "pragma solidity ^0.5.0;\r\n\r\n//import 'SafeMath.sol';\r\n//import 'Ownable.sol';\r\n\r\n/// @title SureVX\r\n/// @author Radial Manner\r\n/// @notice Factory contract creating a simple collateral position between two counterparties.\r\n\r\ncontract CollatFactory {\r\n    address[] private collatAddresses;\r\n    mapping (address => address) private collatCPTY1;\r\n    \r\n    /// @return address of newly created Collat\r\n    function createCollat(address _cpty2, uint _amount) public returns(address) {\r\n        address cpty1 = msg.sender;\r\n        Collat c = new Collat(cpty1, _cpty2, _amount);\r\n        collatAddresses.push(address(c));\r\n        collatCPTY1[msg.sender] = address(c);\r\n        return address(c);\r\n    }\r\n    \r\n    /// @return uint - number of collats\r\n    function getCollatCount() public view returns(uint collatCount) {\r\n        return collatAddresses.length;\r\n    }\r\n    \r\n    /// @return array of addresses of ALL Collats\r\n    function getCollatAddresses() public view returns(address[] memory) {\r\n        return collatAddresses;\r\n    }\r\n    \r\n}\r\n\r\ncontract Collat { \r\n    \r\n        address public cpty1;\r\n        address public cpty2;\r\n        uint public amount;\r\n\r\n    constructor (address _cpty1, address _cpty2, uint _amount) public {\r\n            cpty1 = _cpty1;\r\n            cpty2 = _cpty2;\r\n            amount = _amount;\r\n    }\r\n    \r\n    function getCollatInfo() public view returns (address, address, uint) {\r\n        return (cpty1, cpty2, amount);\r\n    }\r\n}",
  "sourcePath": "C:/Users/Ben/Documents/GitHub/SureVX/contracts/SureVX.sol",
  "compiler": {
    "name": "solc",
    "version": "0.5.0+commit.1d4f565a.Emscripten.clang"
  },
  "schemaVersion": "3.0.1",
  "updatedAt": "2019-03-12T19:50:02.357Z",
  "devdoc": {
    "methods": {
      "createCollat(address,uint256)": {
        "return": "address of newly created Collat"
      },
      "getCollatAddresses()": {
        "return": "array of addresses of ALL Collats"
      },
      "getCollatCount()": {
        "return": "uint - number of collats"
      }
    }
  },
  "userdoc": {
    "methods": {},
    "notice": "Factory contract creating a simple collateral position between two counterparties."
  }
}